:020000040800F2
:100000000011002001010008831E0008C91D00081E
:10001000811E0008790F0008BD20000800000000C4
:10002000000000000000000000000000871E000823
:10003000F510000800000000851E0008891E000859
:100040001B0100081B0100081B0100081B01000820
:100050001B0100081B0100081B0100081B01000810
:100060001B0100081B0100081B0100081B01000800
:100070001B0100081B0100081B0100081B010008F0
:100080001B0100081B0100081B0100081B010008E0
:100090001B0100081B0100081B0100081B010008D0
:1000A0001B0100081B0100081B0100081B010008C0
:1000B0001B0100081B0100081B0100081B010008B0
:1000C0001B0100081B0100081B0100081B010008A0
:1000D0001B010008B12000081B0100081B010008DB
:1000E0001B0100081B0100081B010008DFF80CD0F1
:1000F00000F080FD00480047312E0008001100206C
:100100000648804706480047FEE7FEE7FEE7FEE7B1
:10011000FEE7FEE7FEE7FEE7FEE7FEE7DB1E000880
:10012000ED000008202A04DB203A21FA02F0002129
:10013000704721FA02F3D040C2F1200291400843F7
:100140001946704740EA01039B0703D009E008C93C
:10015000121F08C0042AFAD203E011F8013B00F88C
:10016000013B521EF9D27047D2B201E000F8012BD8
:10017000491EFBD270470022F6E710B513460A4627
:1001800004461946FFF7F0FF204610BD421C10F848
:10019000011B0029FBD1801A7047034611F8012B7F
:1001A00000F8012B002AF9D1184670470FB400B5AA
:1001B0008DB010A909900B9000914FF0FF300A907C
:1001C00000200C9005480690054807906A4609A84B
:1001D0000F9900F0B7FB0DB05DF814FB6109000842
:1001E0007F0900082DE9FF4F087881B09946FF2864
:1001F00005D0491C2D2804D00024002308E000234A
:100200000BE00124F9E703EB830300EB4303491CF4
:100210000878FF28F7D104B15B42002000901478E1
:1002200001462D2C01D02B2C04D1521C2D2C12D088
:100230000024009400251678FF2E0ED00A24A0FB7F
:1002400004C801FB0481002700FB0711521C16EBB8
:100250000C006941EFE70124EBE7994450EA010201
:100260000ED00024AA4D2646DFF8A88200F09EFC9E
:1002700082468B46B9F1000009DAC9F100071BE09C
:1002800001980021C0E9001105B0BDE8F08F0746D4
:1002900012E0F80707D022462B463046414600F0D0
:1002A00013FC0646884622462B461046194600F0A7
:1002B0000BFC04460D467F10002FEAD1B9F1000F68
:1002C000324643465046594602DA00F0CEF901E084
:1002D00000F0FAFB009A0AB181F00041019AC2E9EC
:1002E0000001D1E72DE9FF4F1F468DB0D7E9014648
:1002F0004FF0FF382E2045464FF000090B90B969AA
:100300006D1C0E988847396A824688470028F6D1C6
:10031000BAF1FF3F0AD024F4D064002E11DDBAF107
:100320002B0F08D0BAF12D0F0BD102E0404611B0CF
:10033000ABE744F48064B9696D1C0E988847824627
:10034000761E6946600501D52D2000E02B208DF832
:10035000000001F1010B0DF1200809E0B9696D1CE5
:100360000E98884782460F9844F40074761E056004
:10037000002E02DDBAF1300FF0D00B998A453ED144
:1003800044F0800406E00F99681CA9F1010944F4C7
:1003900000740860B9696D1C761E0E988847824605
:1003A0003028F0D02BE00B998A4505D1200603D4E4
:1003B00044F08004761E18E0504601F0CDFF08B3EB
:1003C0000DF11301761E44F400748B4508D2AAF196
:1003D00030000BF8010B200607D5A9F1010003E05E
:1003E000200602D409F101008146A00502D50F992B
:1003F000681C0860B9696D1C0E9888478246002EFB
:10040000D1DC53E0002E51DDBAF1650F02D0BAF114
:10041000450F4BD1A00549D5B9696D1C24F4407432
:10042000761E0E9888478246002E0CDD2B2804D0BD
:10043000BAF12D0F07D144F48074B9696D1C0E9880
:1004400088478246761EE00501D52D2100E02B214C
:1004500008F8011BCDF82C8021E00DF12901761E52
:1004600044F4007488450CD2AAF1300010F0FF006B
:1004700088F8000002D10B99884509D908F10108D4
:1004800006E0E00501D5244801E042F20F70814604
:10049000B9696D1C0E98884782460F980560002E3A
:1004A00004DD504601F058FF0028D6D1F9690E98B6
:1004B0008847FF208BF8000088F800000020069095
:1004C00007904B466A4608A906A8FFF78BFEA005D1
:1004D00002D46FF001002AE714F0240F0AD0E007DD
:1004E00014D1DDE906123868031D3B600068C0E9DD
:1004F00000120BE0DDE9060100F09AF90146E00781
:1005000004D13868021D3A600068016028460EE791
:10051000000024400000F03FF1D8FFFF2DE9FE4F1E
:10052000804681EA0300C00F0C46009021F0004194
:1005300023F00045B8EB0200A94105D24046214610
:1005400090461C460B46024623F00040104347D01D
:10055000270DC7F30A00C3F30A510290401A019015
:1005600040286BDAC3F3130040F4801B00989246D6
:1005700020B10023D2EB030A63EB0B0B0198594621
:10058000C0F14002504600F0B6F906460D4650460E
:100590005946019A00F0BEF910EB080061410024B1
:1005A00087EA115284EAE7731A4340D0009A62B393
:1005B000019A012A4FEA075215DC001B61EB020188
:1005C0004FF0004202EA0752CDE90042001C41F51B
:1005D000801132462B4600F029FA03B0BDE8F08FB7
:1005E00040462146F9E7001B61EB0201001C41F582
:1005F000801300185B412018A2F5001747EB030198
:1006000040EAD570B6196D4111E06D084FEA360623
:1006100045EAC0754FEA0752001B61EB0201001C5E
:1006200041F5801149084FEA300000195141324626
:100630002B4603B0BDE8F04F00F0E9B90098012265
:1006400040000023D0EB020263EBE07300982146E8
:100650004FEAE074B8EB000061EB0401E9E783F0D6
:1006600000435BE781F0004158E72DE9F04D81EA56
:10067000030404F0004B21F0004514464FF0000A3B
:1006800023F0004150EA050220D054EA01021DD0B7
:10069000C5F30A570246C5F31303C1F31300C1F3B0
:1006A0000A5640F4801543F48013A7EB0608101B8C
:1006B000D64608F2FD3873EB050002D308F10108B5
:1006C00001E092185B41B8F1000F03DA0020014607
:1006D000BDE8F08D00204FF48011064684460EE000
:1006E000171B73EB050705D3121B63EB05030643CA
:1006F0004CEA010C49084FEA300092185B4150EA7D
:100700000107EDD152EA030012D082EA040083EA25
:100710000501084305D0101BAB4106D2012200237E
:1007200006E000224FF0004302E06FF00102531098
:100730001AEB06004CEB085110EB0A0041EB0B01E1
:10074000BDE8F04D00F063B970B521F000430343FC
:100750000CD0C1F30A550024D5EB040564EB040367
:10076000D617AD1AB34102DB0020014670BD201838
:1007700041EB025170BD0EB540F2334102910021B0
:10078000CDE900110A460B4600F050F903B000BD58
:1007900070B5C1F30A5201F000450024C1F3130102
:1007A00040F2FF3341F480119A4201DA002070BD1B
:1007B00040F233439A42A2F2334203DC5242FFF743
:1007C000B1FC00E090402C43F1D0404270BD0000ED
:1007D00030B5041E71F1000404DB4FF000444042C8
:1007E00064EB0101141E73F1000405DB1C464FF09D
:1007F0000043524263EB04038B4208BF824230BD88
:1008000030B5041E71F1000404DB4FF00044404297
:1008100064EB0101141E73F1000405DB1C464FF06C
:100820000043524263EB0403994208BF904230BD3B
:1008300001F0004330B421F0004150EA010206D03B
:100840000A0DA2F56072C1F31301002A02DC30BC6C
:1008500000207047440F44EAC104C100E01830BCD6
:1008600000EBC25000F09CB830B50B4601460020AA
:100870002022012409E021FA02F59D4205D303FA62
:1008800002F5491B04FA02F52844151EA2F10102E3
:10089000F1DC30BD2DE9F05F0546002092469B4615
:1008A00088460646814640241BE028464146474686
:1008B0002246FFF737FC53465A46C01A914110D3DF
:1008C00011461846224600F016F82D1A67EB01086B
:1008D0004F4622460120002100F00DF817EB0009D9
:1008E0004E41201EA4F10104DFDC484631462A4671
:1008F0004346BDE8F09F202A04DB203A00FA02F1CB
:10090000002070479140C2F1200320FA03F31943FD
:1009100090407047202A06DBCB17203A41FA02F0BC
:1009200043EAE07306E041FA02F3D040C2F120024C
:1009300091400843194670470268114413780160DA
:1009400018467047D1600449516104491162002181
:100950001161114600F066B939090008190C000848
:10096000426842B1016811F8013B23B1521EC0E94F
:100970000012184670470121C160881E7047426806
:100980005AB1C368016843B983688B4205D0491ED8
:10099000521CC0E90012002070474FF0FF30704732
:1009A0000029A8BF7047401C490008BF20F0010083
:1009B000704710B4B0FA80FC00FA0CF050EA010461
:1009C00004BF10BC704749B1CCF1200421FA04F4F3
:1009D00011FA0CF118BF012121430843A3EB0C01CC
:1009E000CB1D4FEA00614FEA102042BF002010BC2F
:1009F000704700EBC35010440029A4BF10BC7047DF
:100A0000401C490008BF20F0010010BC704710B521
:100A1000141E73F1000408DA401C41F10001921821
:100A20005B411A4301D120F0010010BD2DE9F04DCA
:100A300092469B4611B1B1FA81F202E0B0FA80F21F
:100A400020329046FFF757FF04460F4640EA0A005F
:100A500041EA0B0153465A46084313D0114653EA64
:100A6000010019D0C8F140025046FFF75BFB054674
:100A70000E46504659464246FFF73DFF084305D013
:100A8000012004E020463946BDE8F08D00200543F2
:100A900046EAE0762C4337430A986305E40AA0EB64
:100AA00008000022FD0A44EA47540A3002D500201B
:100AB0000146E9E7010510196941DDE9084500191A
:100AC0006941BDE8F04DA2E72DE9FE4F81EA03043C
:100AD00004F0004421F0004100944FF0000B23F09B
:100AE000004350EA01045ED052EA03045BD0C3F332
:100AF0000A54C1F30A552C44A4F2F3340194A0FB28
:100B00000254C1F3130141F48011C3F3130343F4FE
:100B1000801301FB024400FB034E840A970A44EA57
:100B2000815447EA8357A4FB076802958D0A05FBA9
:100B300007854FEA932C04FB0C542705029D4FEACE
:100B4000065847EA1637B5EB08056EEB070C870E1B
:100B5000920E47EA811742EA8312A7FB0201B6EB25
:100B60000B0164EB00042B0D43EA0C335E1844EBDD
:100B70001C50DA465146E7FB0201C5F313044FEA65
:100B80000B3343EA14534FEA0432019C43EA060351
:100B9000A4F10C040294009CCDE900B4FFF746FFD9
:100BA00003B0BDE8F08F00200146F9E70EB540F232
:100BB000334202920022CDE900221346FFF736FFAE
:100BC00003B000BDC1F30A52C1F3130140F2FF3379
:100BD00041F480119A4202DA00200146704740F247
:100BE00033439A42A2F2334202DC5242FFF79ABAEE
:100BF000FFF781BE064C074D06E0E06840F00103B8
:100C000094E8070098471034AC42F6D3FFF772FA25
:100C10002C3700084C370008C0B24FF4F05100F0F8
:100C200097B900002DE9F34F8BB04FF0000801F1A8
:100C30000C000C464FF0010B46460DF1080A0190DE
:100C40006269012101989047051E2DD0252D2CD0D9
:100C5000216A8847C0B16269012101989047216AE1
:100C600088470028F7D1411E62690198904700E04B
:100C7000761CA1690B988847216A88470028F7D11C
:100C8000E1690B988847DBE7A1690B98884707461D
:100C9000A84201D1761CD3E7E1690B9888477F1CF5
:100CA00002D1B8F1000F6FD046E1002762693D46DE
:100CB0003946019890472A2804D162690121019898
:100CC00090470125DFF884926269012101989047DD
:100CD000A0F130010A290AD24F45E5DC07EB870174
:100CE00000EB4107303FDFD445F01005ECE7E906A3
:100CF00001D46FF000476C280AD04C2814D0682823
:100D000015D06A280DD074281CD07A281AD01DE07E
:100D100062690121019890476C2802D045F00405D2
:100D200014E045F002050DE045F020050AE0626997
:100D3000012101989047682802D045F0080505E098
:100D400045F400656269012101989047C4E90157A3
:100D500065283DD019DC58287AD00CDC452837D0DE
:100D600004DC252826D0412831D131E046282FD077
:100D700047282CD12CE05B2877D0612828D0632825
:100D80007CD0642823D15AE0D0E06F2848D008DC1A
:100D900066281DD067281BD0692821D06E2816D15F
:100DA00027E0702845D0732868D0752847D0782868
:100DB0000DD14DE0A1690B988847054625283FF4E1
:100DC00069AFE1690B9888476D1C3FF46AAFB3E0E7
:100DD00023466A466FF001000B99FFF783FA9EE005
:100DE00045F040006060A80723464FF0000236D46B
:100DF0003EE0E8077FF447AF2068011D21600068EE
:100E0000290501D506701BE7290701D5068017E7DC
:100E1000A90703D5F117C0E9006111E706600FE7E4
:100E200045F040006060A80723464FF0080216D442
:100E30001EE040F60E0125EA0100606016E045F074
:100E400040006060A80723464FF00A0207D40FE075
:100E500045F040006060A80708D5234610226FF0D7
:100E600001000B99AFF3008059E007E02346102200
:100E70006FF001000B99AFF3008050E04FF00009D4
:100E80004F464B46632802D05B2806D040E0E80678
:100E900001D40120A06001273AE062690121019894
:100EA00090475E2805D14FF00109626949460198D3
:100EB0009047216939B900210A46534643F8212059
:100EC000491C0829FADBB0B3216969B9C11700EBE5
:100ED000D16253110AEB830122F01F02821A012012
:100EE0000B68904003430B606269012101989047B1
:100EF0005D28E8D1B9F1000F09D00020514651F822
:100F00002020D24341F82020401C0828F7DB02AB08
:100F1000224600976FF001000B99AFF30080002884
:100F20000CDA401C08D1BBF1000F05D04FF0FF30A8
:100F30000DB0BDE8F08FFFE74046F9E7E90701D1C2
:100F400008F1010806444FF0000B79E6CCCCCC0C3C
:100F50007F2801D9002208E0064A02EB5002C007B0
:100F6000127800D1120902F00F02012090400840CF
:100F700070470000EC360008FEE7000070B5002462
:100F8000012001F0C9FE114D04E0641CE4B201200F
:100F900001F09AFED5F8380110B1642CF5D30DE0BC
:100FA000642C0BD2002404E0641CE4B2012001F0A4
:100FB0008BFED5F8380118B1642C04D3012070BD24
:100FC000642CF1D3FAE7002070BD0000000022423B
:100FD00010B500F079F8FFF7D1FF040005D004A1A7
:100FE00005A001F06DF8204610BD08A1F8E700004B
:100FF0006661696C65640000646874313120696EF3
:1010000069742025732E200D0A0000006F6B00000C
:1010100070B50024104D04E0641CE4B2012001F01E
:1010200053FED5F8380108B1642CF5D3002404E050
:10103000641CE4B2012001F047FED5F8380108B97C
:10104000642CF5D3282001F03FFED5F838010028A4
:1010500000D0012070BD00000000224270B50020C9
:1010600004464006050EFFF7D3FF641C2843E4B294
:10107000082CF6D370BD2DE9FC410D46064600F064
:1010800023F8FFF77BFF10B10120BDE8FC810024AD
:101090006F46FFF7E3FF3855641CE4B2052CF8D324
:1010A0009DF800109DF801009DF803300A189DF886
:1010B000020003441A449DF804309A4201D1297079
:1010C00030700020E1E7000010B5002001F024FEA0
:1010D000074C0020C4F8B801142004F5DC7400F0BB
:1010E00057F801202060BDE810401E2001F0ECBD43
:1010F000000022427047704710B590F8211000247C
:10110000022903D00421816301243DE001680A68BB
:1011100022F00E020A6001680A6822F001020A60E9
:101120001A4A0168914201D1012121E0174A143283
:10113000914201D110211BE0144A2832914201D181
:10114000891515E0114A3C32914201D189140FE012
:101150000E4A5032914202D14FF4803108E00B4ADE
:101160006432914202D14FF4801101E04FF080715E
:10117000064A083A5160012180F82110002180F8C8
:101180002010416B01B18847204610BD0800024085
:1011900070B5044600F004F90546601C02D004480E
:1011A0000078044400F0FCF8401BA042FAD370BD64
:1011B000180000202DE9F84FDFF8B891002409F15C
:1011C000040A0AF1040B23460F270BF1040EC9E0B1
:1011D0000125A5402A40AA427DD1674ED1F804C01E
:1011E000ACEB0608B44532D014DCBCF1030F3AD0A6
:1011F00009DCBCF1000F2AD0BCF1010F1CD0BCF1FE
:10120000020F31D11DE0BCF1110F17D0BCF1120F4C
:101210002AD119E0B8F5881F19D006DCB8F5803F4F
:1012200015D0B8F5801F1FD111E0B8F5001F0ED002
:10123000B8F5041F18D10AE0CB6815E0CB681B1D78
:1012400012E0CB6808330FE0CB680C330CE08B68FE
:101250002BB1012B4FF0080303D0456104E00423B8
:1012600002E0056100E00023FF2A01D8064601E004
:1012700000F104064FEA840501D9A5F12005D6F84E
:10128000008007FA05FC28EA0C0803FA05F548EA8D
:101290000508C6F800804D68ED0062D5374DAE698F
:1012A00046F00106AE61AD6924F0030605F00105C4
:1012B0000095334D06EB050CDCF80850A607360FF9
:1012C00007FA06F825EA0805DFF8B880404503D19B
:1012D0004FF0000817E044E0DFF8AC80404502D151
:1012E0004FF001080FE0DFF8A480404502D14FF035
:1012F000020808E0DFF89880404502D14FF003086B
:1013000001E04FF0040808FA06F848EA0508CCF8AE
:1013100008804D68D9F80060ED034D4601D51643AD
:1013200000E096432E604D68DAF80060AD03554644
:1013300001D5164300E096432E604D68DBF800604F
:10134000ED025D4601D5164300E096432E604D68E0
:10135000DEF80060AD02754601D5164300E0964305
:101360002E60641C0D682A46E5407FF431AFBDE86D
:10137000F88F00000004014000001110001002402E
:101380000000014000080140000C01400010014035
:10139000001401400AB1016170470904FBE7000035
:1013A00001488068704700001800002002488168EA
:1013B000027811448160704718000020074810B57A
:1013C000016841F010010160032000F079F800206D
:1013D00000F006F800F024F8002010BD00200240C4
:1013E00070B50D4D04464FF47A712878B1FBF0F0DA
:1013F0000A490968B1FBF0F000F0F0FA48B9102C86
:1014000007D200222146501E00F03AF800206C60FE
:1014100070BD012070BD00001800002024000020D5
:101420000E4808B5816941F001018161816901F0CF
:1014300001010091C16941F08051C161C06900F0B2
:1014400080500090052000F03BF80548416821F0ED
:10145000E06141F08061416008BD00000010024081
:1014600000000140002809DB00F01F02012191402B
:101470004009800000F1E020C0F800117047000032
:10148000F0B40E4B1B680C46C3F30223C3F10705EF
:10149000042D00D90425191D072901D2002300E0DD
:1014A000DB1E012606FA05F1491E214099409E40A7
:1014B000761E16403143F0BC00F026BE0CED00E075
:1014C000064900F0070208684FF6FF03184040EA9B
:1014D0000220034A10430860704700000CED00E052
:1014E0000000FA052DE9F0470F46050061D0434E94
:1014F000306800F00700B84209D2306820F00700D9
:1015000038433060306800F00700B84251D1286895
:101510003B4C810712D5400703D5606840F4E0607A
:1015200060602878000703D5606840F46050606010
:101530006068A96820F0F000084360602878C00760
:1015400028D06868012810D02168022810D08907A7
:1015500000292EDA616821F0030101436160FFF781
:101560001FFF804641F288390DE021688903EFE7CB
:101570008901EDE7FFF714FFA0EB0801494502D907
:101580000320BDE8F0876068696800F00C00B0EBEC
:10159000810FEFD1306800F00700B8420BD93068F6
:1015A00020F0070038433060306800F00700B84290
:1015B00001D00120E5E72878400705D56068E96893
:1015C00020F4E060084360602878000706D5606872
:1015D000296920F4605040EAC100606000F038F8EA
:1015E0006168084AC1F30311515CC84006490860AC
:1015F00006480068FFF7F4FE0020C2E70020024022
:1016000000100240D4360008240000201C000020F6
:101610000448054900684968044AC1F30221515C45
:10162000C84070472400002000100240E436000843
:101630000448054900684968044AC1F3C221515C65
:10164000C84070472400002000100240E436000823
:1016500012A185B00FC98DE80F0014A0144A0068CC
:1016600004905168134801F00C03042B10D0082B90
:101670000ED1C1F38343C9031DF803000AD5516895
:1016800004AAC1F34041515C0A4A5043B0FBF1F057
:1016900005B0704708494843FAE700000203040513
:1016A000060708090A0B0C0D0E0F101001020000AE
:1016B0000010024000127A0000093D002DE9F84FA9
:1016C000040070D02078C04DC00749D06868C0F3CE
:1016D0008100012807D06868C0F38100022809D181
:1016E0006868C00306D52868800339D5606800287B
:1016F000E7D035E06068B0F5803F0BD010B1B0F5B1
:10170000A02F11D0286820F480302860286820F4A9
:10171000802002E0286840F480302860606890B142
:10172000FFF73EFE06460AE0286840F48020286065
:10173000F0E700BFFFF734FE801B642873D82868E9
:101740008003F7D50CE0FFF72BFE064605E000BF4F
:10175000FFF726FE801B6428F0D828688003F7D4A2
:1017600020789A4E80074FF001094FF0000839D5D4
:10177000686810F00C0F07D06868C0F38100022879
:1017800009D16868C00306D42868800714D5206989
:10179000012808D110E02069B0B1C6F80090FFF729
:1017A000FFFD074605E00AE1FFF7FAFDC01B02282E
:1017B000C4D828688007F7D52868616920F0F80048
:1017C00040EAC10028600DE0C6F80080FFF7E8FDA0
:1017D000074604E0FFF7E4FDC01B022823D8286871
:1017E0008007F7D4207800072CD57948A169D9B1B2
:1017F000C0F80090FFF7D4FD074604E0FFF7D0FDE6
:10180000C01B02280FD8686A8007F7D571484FF4CB
:10181000FA510068B0FBF1F0009000BF0098411E43
:101820000091FAD20EE080E0C0F80080FFF7B8FD2A
:10183000074604E0FFF7B4FDC01B022875D8686AAC
:101840008007F7D42078400760D5E8690027C000FA
:1018500008D4E86940F08050E861E869012700F0A9
:10186000805000905C480168C90513D40168834624
:1018700041F480710160FFF793FD824606E000BFEE
:10188000FFF78EFDA0EB0A0064284ED8DBF80000BD
:10189000C005F5D5E06801280AD008B1052813D0A5
:1018A000286A20F001002862286A20F0040002E083
:1018B000286A40F001002862E06841F2883B98B154
:1018C000FFF76EFD82460BE0286A40F004002862B4
:1018D000EEE700BFFFF764FDA0EB0A0159455AD8B7
:1018E000286A8007F6D50CE0FFF75AFD824605E02E
:1018F000FFF756FDA0EB0A0159454CD8286A80072E
:10190000F6D41FB1E86920F08050E861E06988B33F
:101910006968C1F38101022944D00228C6F86080B9
:1019200004D0FFF73DFD044638E034E0FFF738FD12
:10193000074604E0FFF734FDC01B02282BD82868B7
:101940008001F7D4206AB0F5803F05D16868A168AE
:1019500020F4003008436860D4E90801084369684E
:1019600021F4741108436860C6F86090FFF718FD11
:10197000044606E025E000BFFFF712FD001B022829
:1019800009D828688001F7D51BE000BFFFF708FDE4
:10199000001B022802D90320BDE8F88F28688001C7
:1019A000F4D40EE00128F7D06868226A00F4803190
:1019B000914204D1616A00F47010884201D0012084
:1019C000EAE70020E8E70000001002400000424281
:1019D00080044242240000200070004010B5401EE8
:1019E000B0F1807F01D3012010BD4FF0E024606191
:1019F0000F21601700F088FB0020A0610720206104
:101A0000002010BD7047000070B5026804461068E1
:101A1000D168536910F00F0F53D003F0010501F4A2
:101A200090762E435FD0C20705D0CA0503D5E26B7E
:101A300042F00102E263420705D5DA0703D0E26B08
:101A400042F00202E263820705D5DA0703D0E26BB7
:101A500042F00402E263020707D501F020022A43A4
:101A600003D0E26B42F00802E263E26B002A34D05A
:101A7000800604D5880602D5204600F045FA206885
:101A80004069E16BC0F3801001F00801014320467A
:101A900024D000F02BFA2068416949061AD5416923
:101AA00021F040014161606BA0B12D494163606B41
:101AB000FFF722FB002810D0606B416BBDE870403F
:101AC000084783060FD58B060DD52046BDE870402C
:101AD00000F01ABA2046FFF795FF70BDFFF792FF9E
:101AE0000020E06370BD03062BD50B0629D594F8C2
:101AF00039002128F6D1A068B0F5805F01D12069B6
:101B0000B0B1206A411C2162216800784860E08CF5
:101B1000401E0004000CE084E4D12068C16821F07C
:101B20008001C1602068C16841F04001C16070BDA2
:101B3000206A0088C0F308005060206A801C206280
:101B4000E5E74006F3D54806F1D5D168204621F0F7
:101B50004001D160202184F8391000F02FF970BDC8
:101B6000DD1E000870B5040004D094F8390000258B
:101B700010B106E0012070BD84F83850204600F016
:101B800023F8242084F839002068C16821F400512A
:101B9000C160204600F0FEF92068016921F49041FF
:101BA00001612068416921F02A0141612068C16812
:101BB00041F40051C160E563202084F8390084F8C5
:101BC0003A00002070BD000030B585B000240094BC
:101BD0000194029403940068184988422CD1184853
:101BE000816941F480418161816901F480410491FE
:101BF000816941F0040181618069124D00F00400A7
:101C000004904FF400700090022001900320039094
:101C100069462846FFF7CEFA2815CDE90004694643
:101C200028460294FFF7C6FA002203212520FFF779
:101C300027FC2520FFF716FC05B030BD0038014019
:101C4000001002400008014090F83A30202B22D1C9
:101C5000F9B1F2B190F83830012B1CD08162828545
:101C6000C2850021C163222280F83A2080F8381012
:101C70000168CA6842F48072CA6001684A6942F029
:101C800001024A610068C16841F02001C160002082
:101C900070470120704702207047000010B50446CD
:101CA0000068084988420BD13C220749204600F0D1
:101CB00066F82046BDE810403C220349FFF7C4BF48
:101CC00010BD000000380140340000202DE9F84329
:101CD000044690F839001F4616460D4620284CD180
:101CE000C5B1BEB194F83800012846D0012084F86F
:101CF00038004FF00008C4F83C80212084F83900F7
:101D0000FFF74EFBA6848146E684A068B0F5805FAD
:101D100003D004E00120BDE8F883206928B12E46F5
:101D20005FF0000584F838800EE00026FAE7802195
:101D3000204600F08BF9A0B9AEB116F8010B21686E
:101D40004860E08C401EE084E08C4B464FF000027F
:101D500000970028EBD14FF04001204600F076F9C3
:101D600030B10320D7E735F8020BC0F30800E6E7EF
:101D7000202084F839000020CDE70220CBE790F83E
:101D80003930202B18D1A9B1A2B190F83830012BED
:101D900012D001628284C2840021C163212280F8B2
:101DA000392080F838100068C16841F08001C160B6
:101DB0000020704701207047022070470149012030
:101DC0000870704700000020FEE70000F8B51B48CF
:101DD000816941F010018161816901F01001009178
:101DE000816941F020018161816901F02001009148
:101DF000816941F0040181618069012200F00400E1
:101E00000F4E5503009029463046FFF7C3FA0D4C9C
:101E100001202146C4E9005000250320C4E90250F6
:101E20003046FFF7C7F94FF48040C4E9000521466A
:101E30003046BDE8F840FFF7BDB900000010024091
:101E400000100140AC0000200C4810B50A490160A8
:101E50004FF4E1314160002181600C22C160C0E992
:101E600004128161C161FFF77DFE002803D0BDE847
:101E70001040FFF740B910BD00380140BC00002001
:101E8000FEE7704770477047FFF790BA30B58FB0E4
:101E900028216846FEF76FF914210AA8FEF76BF9AE
:101EA00001210804CDE900100024029402250491C8
:101EB000CDE907504FF4E01009906846FFF7FEFBAC
:101EC0000F20CDE90A056802CDE90C4002210AA8DD
:101ED0000E94FFF707FB0FB030BD704710B5406A96
:101EE0000021C185C184FFF78DFD10BD0168CA685E
:101EF00022F49072CA6001684A6922F001024A61C4
:101F0000202180F83A10704710B590F83A10222935
:101F100001D0022010BD82684FF480539A4201D153
:101F2000016921B1816A9A421BD04AB10AE0026874
:101F3000816A5268C2F308020A80816A891C08E03B
:101F4000026972B10268526802F07F020A70816A07
:101F5000491C8162C18D491E0904090CC18503D049
:101F600016E002685268F1E70168CA6822F02002B0
:101F7000CA600168CA6822F48072CA6001684A694E
:101F800022F001024A61202180F83A10FFF786FE14
:101F9000002010BD70B5044600680169E26821F4B4
:101FA0004051114301612169A068084361690843F8
:101FB0002168CA6841F20C639A430243CA602068F0
:101FC0004169A26921F44071114341611E492068B1
:101FD000884202D1FFF72CFB01E0FFF719FB00EB71
:101FE000C00101EB0012606864218000B2FBF0F3D5
:101FF000B3FBF1F36FF018067343B2FBF0F5B2FBDD
:10200000F0F605EB8305322303EB0515B5FBF1F57F
:10201000B6FBF1F605F0F00505EB0615B2FBF0F6A0
:10202000B2FBF0F0B0FBF1F06FF01802504306EB9A
:10203000800003EB0010B0FBF1F0216800F00F000E
:102040002844886070BD0000003801402DE9F0414F
:10205000984617460E460446069D1DE0681C1BD098
:102060002DB1FFF79DF9A0EB0800A84214D9206814
:10207000C16821F4D071C1602068416921F001017B
:102080004161202084F8390084F83A00002084F867
:1020900038000320BDE8F0812068006836EA0000BF
:1020A00004D00020B842D9D00020F3E70120F9E79E
:1020B0000148FFF7A9BC0000BC000020FEE70000BB
:1020C0000FB4054B10B503A9044A029800F04CF96F
:1020D00010BC5DF814FB0000C92D0008280000208A
:1020E0000FB4084B10B504A902AA039800F03CF9FC
:1020F000044602A9002000F0CEFC204610BC5DF88A
:1021000014FB0000972A00080907090E002804DBC9
:1021100000F1E02080F80014704700F00F0000F19B
:10212000E02080F8141D704730B528B1144C031F0F
:10213000002021680A4605E0084630BD9A4203D8CF
:1021400010465268002AF9D1002800D041680BD00F
:102150000468A3EB0005A54204D11B681C44034698
:10216000046002E0436000E023603AB11C68D51AC5
:10217000A54203D115682C441C6052685A6030BDDA
:102180002C0000202DE9F04782460F4C10480D4EE0
:102190000E4F001B4FF0000820F007054FF001091B
:1021A00000221146504600F01BFE002802D1306884
:1021B00010B10020BDE8F0873C60C4E90058C6F8C3
:1021C0000090EDE730000020040100202C000020EA
:1021D000000D002002E008C8121F08C1002AFAD131
:1021E00070477047002001E001C1121F002AFBD197
:1021F000704700002DE9FF5FDDE90220010DDDF8E9
:1022000038B0024318D044F61050A1F2FF314143D8
:102210000D140F98012820D0A5EB0B00401C5FEA9D
:10222000000A4FF00004474EDFF81C91A0465046CC
:1022300016D5CAF1000728E00F98012443A201280F
:1022400008D0002100980F9BC0E90021C0E902439B
:10225000BDE8FF9F6FEA0B01F4E7CBF10000DEE77A
:10226000074612E0F80707D0224633464046494663
:10227000FEF72AFC80468946224633461046194618
:10228000FEF722FC04460E467F10002FEAD1DDE95E
:102290000201BAF1000F42464B4602DAFEF714FC87
:1022A00001E0FEF7E2F904460E460022284BFEF755
:1022B000A7FA03D84FF0FF30014607E00022254B74
:1022C00020463146FEF72AF9FEF77CFC102409E08F
:1022D000002C0ADB0A220023FEF7DCFA019B3032D5
:1022E0001A55641E50EA0102F2D1641C019AC4F12D
:1022F000110314440F9A012A03D0012208430DD17F
:102300000AE0084304D000204FF0110B0F9080E743
:10231000A3EB0B056D1E0DE05B4504DD4FF00002E5
:1023200005F1010504E003DA4FF00002A5F1010513
:10233000002AECD000980F99C0E90231C0E90045AD
:1023400086E70000000024400000F03F300000005D
:102350000000F0430000E03F30380A2801D201209D
:1023600070470020704700002DE9FF4F95B09B4655
:102370008946064600250FE2252877D10024274606
:10238000F84A0121059400E0044316F8013F203B80
:1023900001FA03F01042F7D130782A2811D06FF0FB
:1023A0002F033078A0F13002092A16D8059A44F09C
:1023B000020402EB820203EB42021044761C0590F9
:1023C000EFE759F8042B0592002A03DA504244F44F
:1023D0000054059044F00204761C30782E2816D163
:1023E00016F8010F44F004042A280DD06FF02F02D4
:1023F0003078A0F13003092B09D807EB870302EBF3
:102400004303C718761CF3E759F8047B761C307831
:102410006C280FD006DC4C2817D068280DD06A280D
:1024200014D104E0742810D07A280FD10DE044F4C0
:1024300000140AE044F4801401E044F4401472787B
:10244000824202D104F58014761C761C307866280E
:102450000BD013DC582877D009DC002875D045282C
:10246000F6D04628F4D047281AD19DE118E0632819
:1024700035D0642879D0652812D195E1702873D0C1
:1024800008DC6728F1D069286FD06E280DD06F283E
:1024900006D1B5E073282CD0752875D0782874D073
:1024A0005A46179990476D1C75E1C4F302500228F3
:1024B00009D003280DD0D9F8001004280DD00D60E4
:1024C00009F1040967E1D9F80010EA17C1E90052DF
:1024D000F6E7D9F800100D80F2E70D70F0E719F873
:1024E000041B8DF8001000208DF80100EA46012041
:1024F00003E059F804AB4FF0FF3061074FF00001E3
:1025000002D40DE008F101018846B9420FDA804596
:10251000F8DB1AF808100029F4D108E008F10101ED
:1025200088468142FADB1AF808100029F6D105988E
:102530005B46A0EB080721463846179A00F094FA4C
:10254000284400EB080507E04DE029E10DE01AF80A
:10255000010B5A4617999047B8F10108F7D25B462C
:1025600021463846179A13E142E00A220092C4F34A
:1025700002524FF0000A022A08D059F804CB032A6D
:102580004FEAEC710AD00DE029E02AE009F10701D9
:1025900021F00702F2E802C1914609E00FFA8CFC33
:1025A0004FEAEC71042A03D14FFA8CFC4FEAEC712C
:1025B000002907DA0A460021DCF1000C61EB020178
:1025C0002D2202E0220504D52B228DF804200122C1
:1025D00003E0E20701D02022F7E7904659E00A2104
:1025E00002E010220DE010214FF0000A00910BE0F4
:1025F00010224FF0000A44F004040827009203E080
:1026000008224FF0000A0092C4F30252022A05D0B9
:1026100059F804CB0021032A08D009E009F1070189
:1026200021F00702F2E802C1914605E01FFA8CFC96
:10263000042A01D10CF0FF0C4FF00008220728D526
:10264000702806D0009B83F0100353EA0A0305D0DC
:102650000EE040228DF80420012208E05CEA01022D
:1026600006D030228DF804208DF805000222904615
:10267000009B83F0080353EA0A030AD15CEA0102D3
:1026800001D1620705D530228DF804204FF00108F2
:102690007F1E582804D034A003900EA802900DE0AD
:1026A00036A0F9E753466046009AFEF7F3F88446F1
:1026B0000398825C0298401E029002705CEA01005E
:1026C000F0D1029806A9081A00F1200A600702D585
:1026D00024F4803400E00127574502DDA7EB0A000F
:1026E00000E0002000EB0A01009005984144401AE8
:1026F0000590E00306D45B462146179A059800F042
:10270000B3F90544002706E001A85A46C05D1799B1
:1027100090476D1C7F1C4745F6DBE0030CD55B46FC
:102720002146179A059800F09FF9054404E03020EF
:102730005A46179990476D1C0099481E0090002931
:10274000F5DC08E0029802995A460078491C02918B
:10275000179990476D1CBAF10001AAF1010AF1DC4A
:1027600065E1000009280100303132333435363755
:1027700038396162636465660000000030313233CD
:10278000343536373839414243444546000000006D
:1027900000F058F90544761C307800287FF4ECAD41
:1027A00019B02846BDE8F08F620700D4062709F16A
:1027B000070222F0070CFCE80223E14603F0004880
:1027C0005FEA080C02D00FF2702C0DE05FEA045CA7
:1027D00002D50FF2682C07E05FEAC47C02D00FF24A
:1027E000602C01E0AFF2700C4FF0FF3823F0004393
:1027F000CDF850C065280CD006DC452809D0462805
:102800001DD047283DD13DE0662818D067287ED1ED
:1028100038E00021112F01DB112000E0781CCDE908
:10282000000106A90EA8FFF7E5FCDDE90F010E9AED
:1028300003910021009207F1010A04914DE04FF04D
:1028400000400097CDE9011006A90EA8FFF7D2FCC1
:10285000DDE90F0203920E9B11990022DDF80CA016
:102860000093049211B9791C00EB010AB7EB0A003E
:1028700004D4C0F1FF3007F1010A0490AAEB07006D
:10288000019044E0012F00DA01270021112F01DD22
:10289000112000E03846CDE9000106A90EA8FFF797
:1028A000A9FCDDE90F010E9A039100210491009229
:1028B000BA4621070CD40399514500DA8A46BAF189
:1028C000010F05DD009AAAF10101515C302908D001
:1028D000B84202DA10F1040F06DA0121CDE9011045
:1028E00015E0AAF10101E9E7002805DC049901449B
:1028F0000491AAEB000102E0411C514500DD8A462B
:102900000499401A401C01904FF0004002902007AB
:1029100004D40198504501DBCDF8048000208DF8E7
:102920004F0002980DF14F07B0F1004F25D02B203A
:102930000E9002984FF0020800280CDA40420290F4
:102940002D200E9007E00A210298FDF78DFF30310F
:10295000029007F8011DB8F10001A8F10108F2DCAE
:1029600002980028EFD1791E0E980870307800F098
:10297000200040F0450007F8020D12A8C01B00F12E
:1029800007081498007800B1012000EB0A010198B3
:1029900001EBE07105984144401A401E0590E003A8
:1029A00006D45B462146179A059800F05DF8054469
:1029B0001498007818B15A46179990476D1CE00397
:1029C00024D55B462146179A059800F04DF805443A
:1029D0001CE00498002807DBDDE90301884203DDE1
:1029E0000098405C179901E0179930205A469047AB
:1029F000049805F10105401C04900198401E0190C7
:102A000004D12E205A46179990476D1CBAF1000147
:102A1000AAF1010ADDDC05E017F8010B5A46179907
:102A200090476D1CB8F10001A8F10108F4DC5B4689
:102A30002146179A0598ABE62D0000002B000000F8
:102A4000200000002DE9F041044600251E461746EF
:102A5000880404D405E039462020B0476D1C641E6C
:102A6000F9D52846BDE8F0812DE9F041044600255E
:102A70001E469046C80301D5302700E02027880471
:102A800004D505E041463846B0476D1C641EF9D5B3
:102A90002846BDE8F0810A68531C0B60107070472F
:102AA00011B108B1884201D10020704782683AB163
:102AB00052681AB111604A60806841600120704715
:102AC00081600020C1E90001F8E72DE9F04106002E
:102AD0000698984614460D4621D005B3FCB1A6428F
:102AE0001DD018B1E06840F4007708E01946284688
:102AF00000F0AAF8050012D0E06820F40077A08961
:102B0000800504D4206A10B1D8F804108847E76023
:102B1000214630462562BDE8F041FFF7C1BF0020E5
:102B2000BDE8F081F8B50C4605461046194600F0A0
:102B300013F8064600200090064B324621462846F0
:102B4000FFF7C3FF0028304602D100F041F8002013
:102B5000F8BD00000C00002070B505460E46124876
:102B600000F05AF804001CD00820E060C4E90656C2
:102B70000E4A0F4B28463146FDF742FE02D86FF051
:102B800000400DE000220B4B28463146FDF720FEA9
:102B900002D84FF0004003E028463146FDF7F8FD2B
:102BA0006061204670BD00000C0000200000C0FFE6
:102BB000FFFFDF410000E0C110B5044800F02CF831
:102BC000002801D04021C16010BD00000C00002091
:102BD00070B504460F4E19E0A0892568C0050AD4D7
:102BE000A06820B1FFF7F4FFA089C00503D42069D5
:102BF00008B171688847A089800503D4206A08B1AC
:102C0000716888477168204688472C46002CE3D1BC
:102C100070BD00000C00002010B501682820884716
:102C2000040002D02821FDF7A6FA204610BD0000BE
:102C3000014A012100F0AEB90C00002001494968A9
:102C4000084700000C00002070B50E4605000DD0AE
:102C5000FDF79CFA401C316804468847060005D001
:102C600022462946FDF76EFA304670BD002070BD41
:102C70002DE9F0479846894623F0004621F00047A9
:102C80000546144633463946FDF7BAFD02D22846BA
:102C9000394601E0204631466FF03302FDF754FD1E
:102CA00006460F462246434628464946FDF7D7FCCE
:102CB00021F0004132463B46FDF78AFD02D8012053
:102CC000BDE8F0870020FBE771B54FF461754FF068
:102CD000E023104E009819E02C46A04200D804468C
:102CE0009869614201EBC10110EBC10105D49A69F9
:102CF000824208DA8A42FADA05E08A199969814241
:102D0000FCDD9142FADC0098001B00900028E3D122
:102D100078BD0000401901000649074B4FF480427E
:102D200008B1002000E00120C1E900200149184657
:102D3000FEF740BAAC000020001001402DE9F04140
:102D400004001CD02268D2B1636813B1A068984215
:102D500015D24FF00046B14211D2A568491C68183F
:102D6000834202D35019BDE8F081216939B9B0F12D
:102D7000804F06D3B04202D26FF0004702E000203D
:102D8000F1E74700236A00262BB1394610469847E1
:102D9000050012D00CE0A1693846884705000CD028
:102DA000A2682168521CFDF7CDF9E16920688847C7
:102DB000C4E90057A0682844D5E7E169206888473E
:102DC00066602660DBE7000013B54FF6FF73012253
:102DD00069460248FEF77AFF00981CBDBC0000203F
:102DE0002DE9F0410B3020F00706104D19E0206866
:102DF000B04215D3B0420AD9871B201DD4F80480F5
:102E0000FDF7A0F9A019C0E90078286004E0606827
:102E10002860201DFDF796F9201D2660BDE8F08191
:102E2000251D2C68002CE2D10020F7E72C000020A3
:102E30001CB500208DF800008DF80400FEF7BEFAE6
:102E4000FFF724F8FEF7C2FFFEF7FEFFFEF7C0F81B
:102E500000F04CF840F6B835FFF7AEFE044601A985
:102E60006846FEF708F92846FEF792F99DF800003B
:102E7000FDF781FC02460B4611A12046FFF752FEEA
:102E80009DF80400FDF777FC02460B460DA1204695
:102E9000FFF748FE2046FFF7CBFE074600F058FB41
:102EA0000646384600F04CFB0146324606A0FFF7C6
:102EB00007F93846FFF7C2FE2046FFF789FECBE749
:102EC000740000006800000041542B454D515055DE
:102ED000423D302C226D79746F706963222C312C45
:102EE000302C302C25642C25730D0A0070B500247D
:102EF0004FF47A752846FEF74BF9641C142CF9DB65
:102F00000BA0FFF7DDF82846FEF742F90AA0FFF70D
:102F1000D7F840F6C410FEF73BF913A0FFF7D0F83E
:102F200000224FF400511A48FEF734FA002070BD19
:102F3000415445300D0A000041542B454D514E453A
:102F4000573D2234392E3233332E39312E32353239
:102F5000222C2231383833222C31323030302C318F
:102F600030300D0A0000000041542B454D51434FB5
:102F70004E3D302C332C226D79636C69656E74691B
:102F800064222C313030302C312C300D0A000000FE
:102F900000100140F0B589B00E46074614462421C2
:102FA0006846FDF7E8F84FF48075216828468847A1
:102FB0000596CDE9000594E8070006AB83E8070015
:102FC000009888B36946384600F01CFA40B368465A
:102FD00000F072FBA26800263AB102990098491CE1
:102FE000904705001CD0009617E002982168401C0D
:102FF0008847050014D0DDE90110401C814201D250
:103000000A4601E0029A521C28460099FDF79AF8F8
:1030100002982E54616800988847284609B0F0BD90
:10302000009808B1616888470020F7E72DE9F04172
:1030300085680C000FD001212046FFF77FFE002895
:103040000AD05B210170A068401CA060E068401CB1
:103050000026E06025E00020BDE8F08121462846FA
:1030600000F0D0F90028F7D0204600F025FB2868B2
:10307000B0B1606908B1022700E00127791C204641
:10308000FFF75CFE0028E7D02C2100F8011B6169E6
:1030900011B1202100F8011B0670A0683844A0601F
:1030A0002D68002DDAD102212046FFF747FE0028C7
:1030B000D2D05D2101704670E068401EE0600120C2
:1030C000CAE700002DE9F047D0E906548AB08846E7
:1030D00000271C216846FDF74EF80020CDE90800C6
:1030E0004FF02E09B8F1000F35D00DB1012000E0EE
:1030F00000202043274920F00040081AC00F4FF05D
:10310000000A13D14800B0EB440F00D175B12A4634
:10311000234621A16846FEF7E3FF064608AA20A140
:103120006846FDF743F801280CD104E01DA168466C
:10313000FEF7D6FF0CE0DDE908012A462346FFF73B
:1031400097FD30B92A46234618A16846FEF7C8FF06
:1031500006461A2E03D300200AB0BDE8F087711C82
:103160004046FFF7EBFD0028F6D069462E2306E027
:10317000CA5D4A4501D1C35500E0C2557F1CB74224
:10318000F6D300F807A0D8F8080081190120C8F884
:103190000810E1E70000F07F25312E31356700008F
:1031A000256C67006E756C6C0000000025312E31B7
:1031B000376700002DE9F04785680C0003D060698F
:1031C00020B1022603E00020BDE8F0870126711C33
:1031D0002046FFF7B3FD0028F6D07B2100F8011B45
:1031E000E168491CE16061690A2701B10770A068C4
:1031F0004FF0000830440926A06059E088B120460D
:10320000E168FFF79BFD0028DED0002103E000BF4E
:1032100000F8016B491CE2688A42F9D8A0681044A2
:10322000A0602146286A00F065F80028CCD020462E
:1032300000F042FA606908B1022000E001208146F6
:1032400001462046FFF77AFD0028BDD03A2100F85C
:10325000011B616901B10670A16801EB0900A06062
:103260002146284600F0CEF80028ADD0204600F0D8
:1032700023FA606900B10120296801B1012100EB46
:10328000010909F101012046FFF758FD00289BD0F4
:10329000296811B12C2100F8011B616909B100F8FE
:1032A000017B80F80080A16801EB0900A0602D6817
:1032B0006069002DA2D110B1E168491C00E0022133
:1032C0002046FFF73BFD002886D0616949B1002107
:1032D00003E000BF00F8016B491CE268521E8A42FD
:1032E000F8D87D21017080F80180E068401EE06020
:1032F000012069E72DE9F0470A0005464FF0000676
:1033000001D01DB120E00020BDE8F0870321104668
:10331000FFF714FD0028F7D037A1FCF73EFF5AE075
:103320000C2927D006DC082924D0092922D00A2913
:1033300006D11FE00D291DD022291BD05C2919D0F0
:10334000202900D2761D401C01780029E8D1401BBD
:103350008719F91C1046FFF7F1FC041ED4D04FF07A
:1033600022084FF0000984F800802EB1661C4FF04F
:103370005C0A28E0761CE6E73A462946601CFCF722
:10338000E1FE23E01F2803D9222801D05C2830D198
:1033900006F801AB2A7850460C2A23D006DC082A0E
:1033A0001ED0092A24D00A2A06D11DE00D2A1DD0DC
:1033B000222A12D05C2A1CD010A13046FEF790FEC3
:1033C000361D6D1C761C28780028DBD1E01980F8AA
:1033D000018080F80290012096E786F80080F0E7EF
:1033E000622006E0662004E06E2002E0722000E029
:1033F00074203070E5E7000022220000752530348B
:103400007800000070B504000E4613D096B1207B02
:10341000102843D008DC012816D002281ED004282A
:103420000AD0082806D121E020283CD040283FD0EF
:10343000802820D0002070BD05213046FFF77EFC9B
:103440000028F8D01DA106E006213046FFF776FCE3
:103450000028F0D01BA1FCF7A0FE1DE0052130469E
:10346000FFF76CFC0028E6D018A1F4E72046BDE881
:103470007040FFF727BE20690028DCD0FCF786FEED
:10348000401C054601463046FFF758FC0028D2D0C4
:103490002A462169FCF756FE012070BD2069BDE86F
:1034A0007040FFF727BF2046BDE87040FFF7BEBD64
:1034B0002046BDE87040FFF77DBE00006E756C6C65
:1034C0000000000066616C73650000007472756531
:1034D000000000002DE9F04704008A4616D054F899
:1034E000047CD4F800903E1F564500D9564620462D
:1034F000FEF71AFE05468846324621465046FFF73B
:103500006FFC40B1C0F80090BDE8F087BDE8F0471F
:103510000846FEF737BE44E9017955B129686A18B3
:10352000211F8A4202D9611B091F2960C5F8048046
:10353000EAE7024AC2F80080E6E700002C0000201B
:10354000014600200A5C00F101007D2AFAD1704793
:103550002DE9F04F002405462346FFF7F1FF6127D0
:1035600030264FF032084FF0340A4FF0360B4FF050
:1035700037094FF0380E33224E4951E015F804C098
:10358000BCF1350F7ED01DDCBCF1300F63D00CDCFC
:10359000BCF1090F53D0BCF10A0F52D0BCF1220F7D
:1035A00045D0BCF12C0F2AD144E0BCF1310F56D0EC
:1035B000BCF1320F58D0BCF1330F5AD0BCF1340FEC
:1035C0001DD15AE0BCF13A0F2FD00CDCBCF1360F04
:1035D0005CD0BCF1370F5ED0BCF1380F60D0BCF1CD
:1035E000390F0CD161E0BCF1680F31D0BCF1740F20
:1035F0002BD0BCF17B0F05D0BCF17D0F07D04FF075
:103600003F0C09E001F803904FF0620C03E001F871
:1036100003904FF0640C5B1C01F803C05B1C641C3E
:103620008442ABDB2348BDE8F08FCA540AE001F8BE
:1036300003801AE001F803804FF0630CEBE7CE54EF
:1036400034E0CE545B1CCF54E8E701F8039015E05A
:1036500001F803B025E0CA545B1CCE54DEE7CA541F
:103660004FF0310CD7E70DE0CA545B1C01F8038022
:10367000D4E7CA545B1CCA54D0E7CA545B1C01F897
:1036800003A0CBE7CA544FF0350CC4E7CA545B1C07
:1036900001F803B0C2E7CA545B1C01F80390BDE710
:1036A000CA545B1C01F803E0B8E7CA544FF0390C68
:1036B000B1E700007000002010B5040009D02068B8
:1036C000002806D0A1680844FCF760FDA168084402
:1036D000A06010BD00000000000000000102030413
:1036E000060708090000000001020304DDDDDDDD3E
:1036F000DCBBBBDDDDDDDDDDDDDDDDDD9888888883
:103700008888888877777777778888888555555629
:103710006666666666666666666888888333333280
:1037200022222222222222222228888D4C3700089F
:103730000000002034000000D42100088037000879
:1037400034000020CC100000E4210008000000003C
:103750000000000000000000852100082921000869
:10376000D534000801000000100000000000000037
:103770000024F40000000000000000000000000031
:04000005080000ED02
:00000001FF
